{
  "address": "0x8c1901c031Cdf42a846c0C422A3B5A2c943F4944",
  "abi": [
    {
      "inputs": [
        {
          "internalType": "address",
          "name": "trustedForwarder",
          "type": "address"
        }
      ],
      "stateMutability": "nonpayable",
      "type": "constructor"
    },
    {
      "anonymous": false,
      "inputs": [
        {
          "indexed": false,
          "internalType": "address",
          "name": "_msgSender",
          "type": "address"
        }
      ],
      "name": "IncrementContextCounter",
      "type": "event"
    },
    {
      "inputs": [
        {
          "internalType": "address",
          "name": "",
          "type": "address"
        }
      ],
      "name": "contextCounter",
      "outputs": [
        {
          "internalType": "uint256",
          "name": "",
          "type": "uint256"
        }
      ],
      "stateMutability": "view",
      "type": "function"
    },
    {
      "inputs": [],
      "name": "incrementContext",
      "outputs": [],
      "stateMutability": "nonpayable",
      "type": "function"
    },
    {
      "inputs": [
        {
          "internalType": "address",
          "name": "forwarder",
          "type": "address"
        }
      ],
      "name": "isTrustedForwarder",
      "outputs": [
        {
          "internalType": "bool",
          "name": "",
          "type": "bool"
        }
      ],
      "stateMutability": "view",
      "type": "function"
    }
  ],
  "transactionHash": "0xd85596cf6cd72ab12a8a832c303a871b044db23a552c64a8039e0886306ada79",
  "args": [
    "0xBf175FCC7086b4f9bd59d5EAE8eA67b8f940DE0d"
  ],
  "numDeployments": 1,
  "solcInputHash": "898ceb85d6a2e568fe487fd27e98f56c",
  "bytecode": "0x60a060405234801561001057600080fd5b506040516102ea3803806102ea83398101604081905261002f91610040565b6001600160a01b0316608052610070565b60006020828403121561005257600080fd5b81516001600160a01b038116811461006957600080fd5b9392505050565b60805161026061008a600039600060a801526102606000f3fe608060405234801561001057600080fd5b50600436106100415760003560e01c8063572b6c051461004657806382b761681461006e578063f69c0ac11461009c575b600080fd5b6100596100543660046101d3565b6100a6565b60405190151581526020015b60405180910390f35b61008e61007c3660046101d3565b60006020819052908152604090205481565b604051908152602001610065565b6100a46100d8565b005b7f00000000000000000000000000000000000000000000000000000000000000006001600160a01b0390811691161490565b6100e1336100a6565b61013c5760405162461bcd60e51b815260206004820152602260248201527f4f6e6c792063616c6c61626c65206279205472757374656420466f727761726460448201526132b960f11b606482015260840160405180910390fd5b60006101466101b1565b6001600160a01b038116600090815260208190526040812080549293509061016d83610203565b90915550506040516001600160a01b03821681527fea2bfe80062c6394f8f8d5804cafdf4b2ff1c2b5feefccbb11233dc843632d0a9060200160405180910390a150565b60006101bc336100a6565b156101ce575060131936013560601c90565b503390565b6000602082840312156101e557600080fd5b81356001600160a01b03811681146101fc57600080fd5b9392505050565b60006001820161022357634e487b7160e01b600052601160045260246000fd5b506001019056fea264697066735822122023fd01a9a082a157daf76fa5a6ca4949125b471c50431d20cc61880c00ac015d64736f6c63430008100033",
  "devdoc": {
    "kind": "dev",
    "methods": {},
    "version": 1
  },
  "userdoc": {
    "kind": "user",
    "methods": {},
    "version": 1
  },
  "storageLayout": {
    "storage": [
      {
        "astId": 1751,
        "contract": "contracts/CounterERC2771.sol:CounterERC2771",
        "label": "contextCounter",
        "offset": 0,
        "slot": "0",
        "type": "t_mapping(t_address,t_uint256)"
      }
    ],
    "types": {
      "t_address": {
        "encoding": "inplace",
        "label": "address",
        "numberOfBytes": "20"
      },
      "t_mapping(t_address,t_uint256)": {
        "encoding": "mapping",
        "key": "t_address",
        "label": "mapping(address => uint256)",
        "numberOfBytes": "32",
        "value": "t_uint256"
      },
      "t_uint256": {
        "encoding": "inplace",
        "label": "uint256",
        "numberOfBytes": "32"
      }
    }
  }
}